{
  "_format": "hh-sol-artifact-1",
  "contractName": "Token",
  "sourceName": "contracts/Token.sol",
  "abi": [
    {
      "inputs": [],
      "stateMutability": "nonpayable",
      "type": "constructor"
    },
    {
      "anonymous": false,
      "inputs": [
        {
          "indexed": false,
          "internalType": "address",
          "name": "_doctor",
          "type": "address"
        },
        {
          "indexed": false,
          "internalType": "string",
          "name": "message",
          "type": "string"
        }
      ],
      "name": "doctorRegister",
      "type": "event"
    },
    {
      "anonymous": false,
      "inputs": [
        {
          "indexed": false,
          "internalType": "address",
          "name": "patient_address",
          "type": "address"
        },
        {
          "indexed": false,
          "internalType": "string",
          "name": "message",
          "type": "string"
        },
        {
          "indexed": false,
          "internalType": "string",
          "name": "_doctor",
          "type": "string"
        },
        {
          "indexed": false,
          "internalType": "address",
          "name": "doctor_address",
          "type": "address"
        }
      ],
      "name": "grantDoctorAccess",
      "type": "event"
    },
    {
      "anonymous": false,
      "inputs": [
        {
          "indexed": false,
          "internalType": "address",
          "name": "_patient",
          "type": "address"
        },
        {
          "indexed": false,
          "internalType": "string",
          "name": "message",
          "type": "string"
        }
      ],
      "name": "patientRegister",
      "type": "event"
    },
    {
      "anonymous": false,
      "inputs": [
        {
          "indexed": false,
          "internalType": "address",
          "name": "patient_address",
          "type": "address"
        },
        {
          "indexed": false,
          "internalType": "string",
          "name": "message",
          "type": "string"
        },
        {
          "indexed": false,
          "internalType": "string",
          "name": "_doctor",
          "type": "string"
        },
        {
          "indexed": false,
          "internalType": "address",
          "name": "doctor_address",
          "type": "address"
        }
      ],
      "name": "revokeDoctorAccess",
      "type": "event"
    },
    {
      "inputs": [
        {
          "internalType": "address",
          "name": "_id",
          "type": "address"
        },
        {
          "internalType": "string",
          "name": "_name",
          "type": "string"
        },
        {
          "internalType": "string",
          "name": "_contact",
          "type": "string"
        },
        {
          "internalType": "string",
          "name": "_specialization",
          "type": "string"
        },
        {
          "internalType": "uint64",
          "name": "_adhaar_number",
          "type": "uint64"
        }
      ],
      "name": "addDoctor",
      "outputs": [],
      "stateMutability": "nonpayable",
      "type": "function"
    },
    {
      "inputs": [
        {
          "internalType": "string",
          "name": "_name",
          "type": "string"
        },
        {
          "internalType": "string",
          "name": "_DOB",
          "type": "string"
        },
        {
          "internalType": "string",
          "name": "_contact",
          "type": "string"
        },
        {
          "internalType": "string",
          "name": "_gen",
          "type": "string"
        },
        {
          "internalType": "uint64",
          "name": "_adhaar_number",
          "type": "uint64"
        }
      ],
      "name": "addPatient",
      "outputs": [],
      "stateMutability": "nonpayable",
      "type": "function"
    },
    {
      "inputs": [],
      "name": "getDoctorInfo",
      "outputs": [
        {
          "components": [
            {
              "internalType": "string",
              "name": "name",
              "type": "string"
            },
            {
              "internalType": "uint64",
              "name": "adhaar_number",
              "type": "uint64"
            },
            {
              "internalType": "string",
              "name": "contact",
              "type": "string"
            },
            {
              "internalType": "string",
              "name": "specialization",
              "type": "string"
            },
            {
              "internalType": "address",
              "name": "id",
              "type": "address"
            },
            {
              "internalType": "address[]",
              "name": "patient_list",
              "type": "address[]"
            }
          ],
          "internalType": "struct Token.doctor",
          "name": "",
          "type": "tuple"
        }
      ],
      "stateMutability": "view",
      "type": "function"
    },
    {
      "inputs": [],
      "name": "getOwnerInfo",
      "outputs": [
        {
          "internalType": "address",
          "name": "",
          "type": "address"
        }
      ],
      "stateMutability": "view",
      "type": "function"
    },
    {
      "inputs": [],
      "name": "getPatientInfo",
      "outputs": [
        {
          "components": [
            {
              "internalType": "string",
              "name": "name",
              "type": "string"
            },
            {
              "internalType": "string",
              "name": "dob",
              "type": "string"
            },
            {
              "internalType": "uint64",
              "name": "adhaar_number",
              "type": "uint64"
            },
            {
              "internalType": "string",
              "name": "gender",
              "type": "string"
            },
            {
              "internalType": "string",
              "name": "contact",
              "type": "string"
            },
            {
              "internalType": "address",
              "name": "id",
              "type": "address"
            },
            {
              "internalType": "bytes32[]",
              "name": "files",
              "type": "bytes32[]"
            },
            {
              "internalType": "address[]",
              "name": "doctor_list",
              "type": "address[]"
            }
          ],
          "internalType": "struct Token.patient",
          "name": "",
          "type": "tuple"
        }
      ],
      "stateMutability": "view",
      "type": "function"
    },
    {
      "inputs": [
        {
          "internalType": "address",
          "name": "doctor_id",
          "type": "address"
        }
      ],
      "name": "grantAccessToDoctor",
      "outputs": [],
      "stateMutability": "nonpayable",
      "type": "function"
    },
    {
      "inputs": [
        {
          "internalType": "address",
          "name": "doctor_id",
          "type": "address"
        }
      ],
      "name": "revokeAccessFromDoctor",
      "outputs": [],
      "stateMutability": "nonpayable",
      "type": "function"
    }
  ],
  "bytecode": "0x608060405234801561001057600080fd5b50336000806101000a81548173ffffffffffffffffffffffffffffffffffffffff021916908373ffffffffffffffffffffffffffffffffffffffff160217905550613b6f806100606000396000f3fe608060405234801561001057600080fd5b506004361061007d5760003560e01c8063b24920371161005b578063b2492037146100d8578063b380f5c6146100f4578063d9da1a9714610112578063facf83231461012e5761007d565b80631c8e251c14610082578063326df6641461009e578063629e559d146100bc575b600080fd5b61009c60048036038101906100979190612cfd565b61014c565b005b6100a6610bbd565b6040516100b39190613036565b60405180910390f35b6100d660048036038101906100d19190612cfd565b611416565b005b6100f260048036038101906100ed91906131b9565b611e18565b005b6100fc6120a5565b6040516101099190613326565b60405180910390f35b61012c60048036038101906101279190613348565b612728565b005b610136612a3e565b6040516101439190613442565b60405180910390f35b336000600260008373ffffffffffffffffffffffffffffffffffffffff1673ffffffffffffffffffffffffffffffffffffffff168152602001908152602001600020604051806101000160405290816000820180546101aa9061348c565b80601f01602080910402602001604051908101604052809291908181526020018280546101d69061348c565b80156102235780601f106101f857610100808354040283529160200191610223565b820191906000526020600020905b81548152906001019060200180831161020657829003601f168201915b5050505050815260200160018201805461023c9061348c565b80601f01602080910402602001604051908101604052809291908181526020018280546102689061348c565b80156102b55780601f1061028a576101008083540402835291602001916102b5565b820191906000526020600020905b81548152906001019060200180831161029857829003601f168201915b505050505081526020016002820160009054906101000a900467ffffffffffffffff1667ffffffffffffffff1667ffffffffffffffff1681526020016003820180546103009061348c565b80601f016020809104026020016040519081016040528092919081815260200182805461032c9061348c565b80156103795780601f1061034e57610100808354040283529160200191610379565b820191906000526020600020905b81548152906001019060200180831161035c57829003601f168201915b505050505081526020016004820180546103929061348c565b80601f01602080910402602001604051908101604052809291908181526020018280546103be9061348c565b801561040b5780601f106103e05761010080835404028352916020019161040b565b820191906000526020600020905b8154815290600101906020018083116103ee57829003601f168201915b505050505081526020016005820160009054906101000a900473ffffffffffffffffffffffffffffffffffffffff1673ffffffffffffffffffffffffffffffffffffffff1673ffffffffffffffffffffffffffffffffffffffff168152602001600682018054806020026020016040519081016040528092919081815260200182805480156104b957602002820191906000526020600020905b8154815260200190600101908083116104a5575b505050505081526020016007820180548060200260200160405190810160405280929190818152602001828054801561054757602002820191906000526020600020905b8160009054906101000a900473ffffffffffffffffffffffffffffffffffffffff1673ffffffffffffffffffffffffffffffffffffffff16815260200190600101908083116104fd575b5050505050815250509050600073ffffffffffffffffffffffffffffffffffffffff168160a0015173ffffffffffffffffffffffffffffffffffffffff161161058f57600080fd5b826000600160008373ffffffffffffffffffffffffffffffffffffffff1673ffffffffffffffffffffffffffffffffffffffff1681526020019081526020016000206040518060c00160405290816000820180546105ec9061348c565b80601f01602080910402602001604051908101604052809291908181526020018280546106189061348c565b80156106655780601f1061063a57610100808354040283529160200191610665565b820191906000526020600020905b81548152906001019060200180831161064857829003601f168201915b505050505081526020016001820160009054906101000a900467ffffffffffffffff1667ffffffffffffffff1667ffffffffffffffff1681526020016002820180546106b09061348c565b80601f01602080910402602001604051908101604052809291908181526020018280546106dc9061348c565b80156107295780601f106106fe57610100808354040283529160200191610729565b820191906000526020600020905b81548152906001019060200180831161070c57829003601f168201915b505050505081526020016003820180546107429061348c565b80601f016020809104026020016040519081016040528092919081815260200182805461076e9061348c565b80156107bb5780601f10610790576101008083540402835291602001916107bb565b820191906000526020600020905b81548152906001019060200180831161079e57829003601f168201915b505050505081526020016004820160009054906101000a900473ffffffffffffffffffffffffffffffffffffffff1673ffffffffffffffffffffffffffffffffffffffff1673ffffffffffffffffffffffffffffffffffffffff1681526020016005820180548060200260200160405190810160405280929190818152602001828054801561089f57602002820191906000526020600020905b8160009054906101000a900473ffffffffffffffffffffffffffffffffffffffff1673ffffffffffffffffffffffffffffffffffffffff1681526020019060010190808311610855575b5050505050815250509050600073ffffffffffffffffffffffffffffffffffffffff16816080015173ffffffffffffffffffffffffffffffffffffffff16116108e757600080fd5b6000600260003373ffffffffffffffffffffffffffffffffffffffff1673ffffffffffffffffffffffffffffffffffffffff16815260200190815260200160002090506000600160008873ffffffffffffffffffffffffffffffffffffffff1673ffffffffffffffffffffffffffffffffffffffff16815260200190815260200160002090506001600360003373ffffffffffffffffffffffffffffffffffffffff1673ffffffffffffffffffffffffffffffffffffffff16815260200190815260200160002060008973ffffffffffffffffffffffffffffffffffffffff1673ffffffffffffffffffffffffffffffffffffffff16815260200190815260200160002060009054906101000a900461ffff1661ffff1610610a0857600080fd5b81600701879080600181540180825580915050600190039060005260206000200160009091909190916101000a81548173ffffffffffffffffffffffffffffffffffffffff021916908373ffffffffffffffffffffffffffffffffffffffff16021790555060008260070180549050905080600360003373ffffffffffffffffffffffffffffffffffffffff1673ffffffffffffffffffffffffffffffffffffffff16815260200190815260200160002060008a73ffffffffffffffffffffffffffffffffffffffff1673ffffffffffffffffffffffffffffffffffffffff16815260200190815260200160002060006101000a81548161ffff021916908361ffff16021790555081600501339080600181540180825580915050600190039060005260206000200160009091909190916101000a81548173ffffffffffffffffffffffffffffffffffffffff021916908373ffffffffffffffffffffffffffffffffffffffff1602179055507fe239c4e608cb32aaf8ef7214f811e28ea27c91cad9f719be74579c18fc2e983133836000018a604051610bab939291906135b3565b60405180910390a15050505050505050565b610bc5612abf565b336000600260008373ffffffffffffffffffffffffffffffffffffffff1673ffffffffffffffffffffffffffffffffffffffff16815260200190815260200160002060405180610100016040529081600082018054610c239061348c565b80601f0160208091040260200160405190810160405280929190818152602001828054610c4f9061348c565b8015610c9c5780601f10610c7157610100808354040283529160200191610c9c565b820191906000526020600020905b815481529060010190602001808311610c7f57829003601f168201915b50505050508152602001600182018054610cb59061348c565b80601f0160208091040260200160405190810160405280929190818152602001828054610ce19061348c565b8015610d2e5780601f10610d0357610100808354040283529160200191610d2e565b820191906000526020600020905b815481529060010190602001808311610d1157829003601f168201915b505050505081526020016002820160009054906101000a900467ffffffffffffffff1667ffffffffffffffff1667ffffffffffffffff168152602001600382018054610d799061348c565b80601f0160208091040260200160405190810160405280929190818152602001828054610da59061348c565b8015610df25780601f10610dc757610100808354040283529160200191610df2565b820191906000526020600020905b815481529060010190602001808311610dd557829003601f168201915b50505050508152602001600482018054610e0b9061348c565b80601f0160208091040260200160405190810160405280929190818152602001828054610e379061348c565b8015610e845780601f10610e5957610100808354040283529160200191610e84565b820191906000526020600020905b815481529060010190602001808311610e6757829003601f168201915b505050505081526020016005820160009054906101000a900473ffffffffffffffffffffffffffffffffffffffff1673ffffffffffffffffffffffffffffffffffffffff1673ffffffffffffffffffffffffffffffffffffffff16815260200160068201805480602002602001604051908101604052809291908181526020018280548015610f3257602002820191906000526020600020905b815481526020019060010190808311610f1e575b5050505050815260200160078201805480602002602001604051908101604052809291908181526020018280548015610fc057602002820191906000526020600020905b8160009054906101000a900473ffffffffffffffffffffffffffffffffffffffff1673ffffffffffffffffffffffffffffffffffffffff1681526020019060010190808311610f76575b5050505050815250509050600073ffffffffffffffffffffffffffffffffffffffff168160a0015173ffffffffffffffffffffffffffffffffffffffff161161100857600080fd5b6000600260003373ffffffffffffffffffffffffffffffffffffffff1673ffffffffffffffffffffffffffffffffffffffff168152602001908152602001600020604051806101000160405290816000820180546110659061348c565b80601f01602080910402602001604051908101604052809291908181526020018280546110919061348c565b80156110de5780601f106110b3576101008083540402835291602001916110de565b820191906000526020600020905b8154815290600101906020018083116110c157829003601f168201915b505050505081526020016001820180546110f79061348c565b80601f01602080910402602001604051908101604052809291908181526020018280546111239061348c565b80156111705780601f1061114557610100808354040283529160200191611170565b820191906000526020600020905b81548152906001019060200180831161115357829003601f168201915b505050505081526020016002820160009054906101000a900467ffffffffffffffff1667ffffffffffffffff1667ffffffffffffffff1681526020016003820180546111bb9061348c565b80601f01602080910402602001604051908101604052809291908181526020018280546111e79061348c565b80156112345780601f1061120957610100808354040283529160200191611234565b820191906000526020600020905b81548152906001019060200180831161121757829003601f168201915b5050505050815260200160048201805461124d9061348c565b80601f01602080910402602001604051908101604052809291908181526020018280546112799061348c565b80156112c65780601f1061129b576101008083540402835291602001916112c6565b820191906000526020600020905b8154815290600101906020018083116112a957829003601f168201915b505050505081526020016005820160009054906101000a900473ffffffffffffffffffffffffffffffffffffffff1673ffffffffffffffffffffffffffffffffffffffff1673ffffffffffffffffffffffffffffffffffffffff1681526020016006820180548060200260200160405190810160405280929190818152602001828054801561137457602002820191906000526020600020905b815481526020019060010190808311611360575b505050505081526020016007820180548060200260200160405190810160405280929190818152602001828054801561140257602002820191906000526020600020905b8160009054906101000a900473ffffffffffffffffffffffffffffffffffffffff1673ffffffffffffffffffffffffffffffffffffffff16815260200190600101908083116113b8575b505050505081525050905080935050505090565b336000600260008373ffffffffffffffffffffffffffffffffffffffff1673ffffffffffffffffffffffffffffffffffffffff168152602001908152602001600020604051806101000160405290816000820180546114749061348c565b80601f01602080910402602001604051908101604052809291908181526020018280546114a09061348c565b80156114ed5780601f106114c2576101008083540402835291602001916114ed565b820191906000526020600020905b8154815290600101906020018083116114d057829003601f168201915b505050505081526020016001820180546115069061348c565b80601f01602080910402602001604051908101604052809291908181526020018280546115329061348c565b801561157f5780601f106115545761010080835404028352916020019161157f565b820191906000526020600020905b81548152906001019060200180831161156257829003601f168201915b505050505081526020016002820160009054906101000a900467ffffffffffffffff1667ffffffffffffffff1667ffffffffffffffff1681526020016003820180546115ca9061348c565b80601f01602080910402602001604051908101604052809291908181526020018280546115f69061348c565b80156116435780601f1061161857610100808354040283529160200191611643565b820191906000526020600020905b81548152906001019060200180831161162657829003601f168201915b5050505050815260200160048201805461165c9061348c565b80601f01602080910402602001604051908101604052809291908181526020018280546116889061348c565b80156116d55780601f106116aa576101008083540402835291602001916116d5565b820191906000526020600020905b8154815290600101906020018083116116b857829003601f168201915b505050505081526020016005820160009054906101000a900473ffffffffffffffffffffffffffffffffffffffff1673ffffffffffffffffffffffffffffffffffffffff1673ffffffffffffffffffffffffffffffffffffffff1681526020016006820180548060200260200160405190810160405280929190818152602001828054801561178357602002820191906000526020600020905b81548152602001906001019080831161176f575b505050505081526020016007820180548060200260200160405190810160405280929190818152602001828054801561181157602002820191906000526020600020905b8160009054906101000a900473ffffffffffffffffffffffffffffffffffffffff1673ffffffffffffffffffffffffffffffffffffffff16815260200190600101908083116117c7575b5050505050815250509050600073ffffffffffffffffffffffffffffffffffffffff168160a0015173ffffffffffffffffffffffffffffffffffffffff161161185957600080fd5b6000600360003373ffffffffffffffffffffffffffffffffffffffff1673ffffffffffffffffffffffffffffffffffffffff16815260200190815260200160002060008573ffffffffffffffffffffffffffffffffffffffff1673ffffffffffffffffffffffffffffffffffffffff16815260200190815260200160002060009054906101000a900461ffff1661ffff16116118f457600080fd5b6000600360003373ffffffffffffffffffffffffffffffffffffffff1673ffffffffffffffffffffffffffffffffffffffff16815260200190815260200160002060008573ffffffffffffffffffffffffffffffffffffffff1673ffffffffffffffffffffffffffffffffffffffff16815260200190815260200160002060006101000a81548161ffff021916908361ffff1602179055506000600260003373ffffffffffffffffffffffffffffffffffffffff1673ffffffffffffffffffffffffffffffffffffffff16815260200190815260200160002090506000600160008673ffffffffffffffffffffffffffffffffffffffff1673ffffffffffffffffffffffffffffffffffffffff16815260200190815260200160002090506000826007018054905090506000805b8261ffff168161ffff161015611ac4578773ffffffffffffffffffffffffffffffffffffffff16856007018261ffff1681548110611a6357611a62613604565b5b9060005260206000200160009054906101000a900473ffffffffffffffffffffffffffffffffffffffff1673ffffffffffffffffffffffffffffffffffffffff1603611ab157809150611ac4565b8080611abc90613670565b915050611a22565b505b600182611ad3919061369a565b61ffff168161ffff161015611ba85783600701600182611af391906136d0565b61ffff1681548110611b0857611b07613604565b5b9060005260206000200160009054906101000a900473ffffffffffffffffffffffffffffffffffffffff16846007018261ffff1681548110611b4d57611b4c613604565b5b9060005260206000200160006101000a81548173ffffffffffffffffffffffffffffffffffffffff021916908373ffffffffffffffffffffffffffffffffffffffff1602179055508080611ba090613670565b915050611ac6565b83600701805480611bbc57611bbb613706565b5b6001900381819060005260206000200160006101000a81549073ffffffffffffffffffffffffffffffffffffffff02191690559055826005018054905091506000905060005b8261ffff168161ffff161015611ca4573373ffffffffffffffffffffffffffffffffffffffff16846005018261ffff1681548110611c4357611c42613604565b5b9060005260206000200160009054906101000a900473ffffffffffffffffffffffffffffffffffffffff1673ffffffffffffffffffffffffffffffffffffffff1603611c9157809150611ca4565b8080611c9c90613670565b915050611c02565b505b600182611cb3919061369a565b61ffff168161ffff161015611d885782600501600182611cd391906136d0565b61ffff1681548110611ce857611ce7613604565b5b9060005260206000200160009054906101000a900473ffffffffffffffffffffffffffffffffffffffff16836005018261ffff1681548110611d2d57611d2c613604565b5b9060005260206000200160006101000a81548173ffffffffffffffffffffffffffffffffffffffff021916908373ffffffffffffffffffffffffffffffffffffffff1602179055508080611d8090613670565b915050611ca6565b82600501805480611d9c57611d9b613706565b5b6001900381819060005260206000200160006101000a81549073ffffffffffffffffffffffffffffffffffffffff021916905590557f212bcbf580385b870fe82b11fdd99334c16d187419727ccfb2b89aea2f872785338460000189604051611e0793929190613781565b60405180910390a150505050505050565b6000600160003373ffffffffffffffffffffffffffffffffffffffff1673ffffffffffffffffffffffffffffffffffffffff1681526020019081526020016000209050600073ffffffffffffffffffffffffffffffffffffffff168160040160009054906101000a900473ffffffffffffffffffffffffffffffffffffffff1673ffffffffffffffffffffffffffffffffffffffff161115611eb957600080fd5b6040518060c001604052808681526020018367ffffffffffffffff1681526020018581526020018481526020013373ffffffffffffffffffffffffffffffffffffffff168152602001600067ffffffffffffffff811115611f1d57611f1c613062565b5b604051908082528060200260200182016040528015611f4b5781602001602082028036833780820191505090505b50815250600160003373ffffffffffffffffffffffffffffffffffffffff1673ffffffffffffffffffffffffffffffffffffffff1681526020019081526020016000206000820151816000019081611fa39190613973565b5060208201518160010160006101000a81548167ffffffffffffffff021916908367ffffffffffffffff1602179055506040820151816002019081611fe89190613973565b506060820151816003019081611ffe9190613973565b5060808201518160040160006101000a81548173ffffffffffffffffffffffffffffffffffffffff021916908373ffffffffffffffffffffffffffffffffffffffff16021790555060a0820151816005019080519060200190612062929190612b24565b509050507f6823d7fd8be27bb3f6dde2de75b94c758c9c8d0c8cb112f922978543d92f6716866040516120959190613a91565b60405180910390a1505050505050565b6120ad612bae565b336000600160008373ffffffffffffffffffffffffffffffffffffffff1673ffffffffffffffffffffffffffffffffffffffff1681526020019081526020016000206040518060c001604052908160008201805461210a9061348c565b80601f01602080910402602001604051908101604052809291908181526020018280546121369061348c565b80156121835780601f1061215857610100808354040283529160200191612183565b820191906000526020600020905b81548152906001019060200180831161216657829003601f168201915b505050505081526020016001820160009054906101000a900467ffffffffffffffff1667ffffffffffffffff1667ffffffffffffffff1681526020016002820180546121ce9061348c565b80601f01602080910402602001604051908101604052809291908181526020018280546121fa9061348c565b80156122475780601f1061221c57610100808354040283529160200191612247565b820191906000526020600020905b81548152906001019060200180831161222a57829003601f168201915b505050505081526020016003820180546122609061348c565b80601f016020809104026020016040519081016040528092919081815260200182805461228c9061348c565b80156122d95780601f106122ae576101008083540402835291602001916122d9565b820191906000526020600020905b8154815290600101906020018083116122bc57829003601f168201915b505050505081526020016004820160009054906101000a900473ffffffffffffffffffffffffffffffffffffffff1673ffffffffffffffffffffffffffffffffffffffff1673ffffffffffffffffffffffffffffffffffffffff168152602001600582018054806020026020016040519081016040528092919081815260200182805480156123bd57602002820191906000526020600020905b8160009054906101000a900473ffffffffffffffffffffffffffffffffffffffff1673ffffffffffffffffffffffffffffffffffffffff1681526020019060010190808311612373575b5050505050815250509050600073ffffffffffffffffffffffffffffffffffffffff16816080015173ffffffffffffffffffffffffffffffffffffffff161161240557600080fd5b6000600160003373ffffffffffffffffffffffffffffffffffffffff1673ffffffffffffffffffffffffffffffffffffffff1681526020019081526020016000206040518060c00160405290816000820180546124619061348c565b80601f016020809104026020016040519081016040528092919081815260200182805461248d9061348c565b80156124da5780601f106124af576101008083540402835291602001916124da565b820191906000526020600020905b8154815290600101906020018083116124bd57829003601f168201915b505050505081526020016001820160009054906101000a900467ffffffffffffffff1667ffffffffffffffff1667ffffffffffffffff1681526020016002820180546125259061348c565b80601f01602080910402602001604051908101604052809291908181526020018280546125519061348c565b801561259e5780601f106125735761010080835404028352916020019161259e565b820191906000526020600020905b81548152906001019060200180831161258157829003601f168201915b505050505081526020016003820180546125b79061348c565b80601f01602080910402602001604051908101604052809291908181526020018280546125e39061348c565b80156126305780601f1061260557610100808354040283529160200191612630565b820191906000526020600020905b81548152906001019060200180831161261357829003601f168201915b505050505081526020016004820160009054906101000a900473ffffffffffffffffffffffffffffffffffffffff1673ffffffffffffffffffffffffffffffffffffffff1673ffffffffffffffffffffffffffffffffffffffff1681526020016005820180548060200260200160405190810160405280929190818152602001828054801561271457602002820191906000526020600020905b8160009054906101000a900473ffffffffffffffffffffffffffffffffffffffff1673ffffffffffffffffffffffffffffffffffffffff16815260200190600101908083116126ca575b505050505081525050905080935050505090565b6000600260003373ffffffffffffffffffffffffffffffffffffffff1673ffffffffffffffffffffffffffffffffffffffff1681526020019081526020016000209050600073ffffffffffffffffffffffffffffffffffffffff168160050160009054906101000a900473ffffffffffffffffffffffffffffffffffffffff1673ffffffffffffffffffffffffffffffffffffffff1611156127c957600080fd5b6040518061010001604052808781526020018681526020018367ffffffffffffffff1681526020018481526020018581526020013373ffffffffffffffffffffffffffffffffffffffff168152602001600067ffffffffffffffff81111561283457612833613062565b5b6040519080825280602002602001820160405280156128625781602001602082028036833780820191505090505b508152602001600067ffffffffffffffff81111561288357612882613062565b5b6040519080825280602002602001820160405280156128b15781602001602082028036833780820191505090505b50815250600260003373ffffffffffffffffffffffffffffffffffffffff1673ffffffffffffffffffffffffffffffffffffffff16815260200190815260200160002060008201518160000190816129099190613973565b50602082015181600101908161291f9190613973565b5060408201518160020160006101000a81548167ffffffffffffffff021916908367ffffffffffffffff16021790555060608201518160030190816129649190613973565b50608082015181600401908161297a9190613973565b5060a08201518160050160006101000a81548173ffffffffffffffffffffffffffffffffffffffff021916908373ffffffffffffffffffffffffffffffffffffffff16021790555060c08201518160060190805190602001906129de929190612c04565b5060e08201518160070190805190602001906129fb929190612b24565b509050507fa0ac63ccee678bca6f3dd38b56c66c2ddaaceceb9558d797cbe508fb41ba28df33604051612a2e9190613b0b565b60405180910390a1505050505050565b60008060009054906101000a900473ffffffffffffffffffffffffffffffffffffffff1673ffffffffffffffffffffffffffffffffffffffff163373ffffffffffffffffffffffffffffffffffffffff1614612a9957600080fd5b60008054906101000a900473ffffffffffffffffffffffffffffffffffffffff16905090565b6040518061010001604052806060815260200160608152602001600067ffffffffffffffff1681526020016060815260200160608152602001600073ffffffffffffffffffffffffffffffffffffffff16815260200160608152602001606081525090565b828054828255906000526020600020908101928215612b9d579160200282015b82811115612b9c5782518260006101000a81548173ffffffffffffffffffffffffffffffffffffffff021916908373ffffffffffffffffffffffffffffffffffffffff16021790555091602001919060010190612b44565b5b509050612baa9190612c51565b5090565b6040518060c0016040528060608152602001600067ffffffffffffffff1681526020016060815260200160608152602001600073ffffffffffffffffffffffffffffffffffffffff168152602001606081525090565b828054828255906000526020600020908101928215612c40579160200282015b82811115612c3f578251825591602001919060010190612c24565b5b509050612c4d9190612c6e565b5090565b5b80821115612c6a576000816000905550600101612c52565b5090565b5b80821115612c87576000816000905550600101612c6f565b5090565b6000604051905090565b600080fd5b600080fd5b600073ffffffffffffffffffffffffffffffffffffffff82169050919050565b6000612cca82612c9f565b9050919050565b612cda81612cbf565b8114612ce557600080fd5b50565b600081359050612cf781612cd1565b92915050565b600060208284031215612d1357612d12612c95565b5b6000612d2184828501612ce8565b91505092915050565b600081519050919050565b600082825260208201905092915050565b60005b83811015612d64578082015181840152602081019050612d49565b60008484015250505050565b6000601f19601f8301169050919050565b6000612d8c82612d2a565b612d968185612d35565b9350612da6818560208601612d46565b612daf81612d70565b840191505092915050565b600067ffffffffffffffff82169050919050565b612dd781612dba565b82525050565b612de681612cbf565b82525050565b600081519050919050565b600082825260208201905092915050565b6000819050602082019050919050565b6000819050919050565b612e2b81612e18565b82525050565b6000612e3d8383612e22565b60208301905092915050565b6000602082019050919050565b6000612e6182612dec565b612e6b8185612df7565b9350612e7683612e08565b8060005b83811015612ea7578151612e8e8882612e31565b9750612e9983612e49565b925050600181019050612e7a565b5085935050505092915050565b600081519050919050565b600082825260208201905092915050565b6000819050602082019050919050565b6000612eec8383612ddd565b60208301905092915050565b6000602082019050919050565b6000612f1082612eb4565b612f1a8185612ebf565b9350612f2583612ed0565b8060005b83811015612f56578151612f3d8882612ee0565b9750612f4883612ef8565b925050600181019050612f29565b5085935050505092915050565b6000610100830160008301518482036000860152612f818282612d81565b91505060208301518482036020860152612f9b8282612d81565b9150506040830151612fb06040860182612dce565b5060608301518482036060860152612fc88282612d81565b91505060808301518482036080860152612fe28282612d81565b91505060a0830151612ff760a0860182612ddd565b5060c083015184820360c086015261300f8282612e56565b91505060e083015184820360e08601526130298282612f05565b9150508091505092915050565b600060208201905081810360008301526130508184612f63565b905092915050565b600080fd5b600080fd5b7f4e487b7100000000000000000000000000000000000000000000000000000000600052604160045260246000fd5b61309a82612d70565b810181811067ffffffffffffffff821117156130b9576130b8613062565b5b80604052505050565b60006130cc612c8b565b90506130d88282613091565b919050565b600067ffffffffffffffff8211156130f8576130f7613062565b5b61310182612d70565b9050602081019050919050565b82818337600083830152505050565b600061313061312b846130dd565b6130c2565b90508281526020810184848401111561314c5761314b61305d565b5b61315784828561310e565b509392505050565b600082601f83011261317457613173613058565b5b813561318484826020860161311d565b91505092915050565b61319681612dba565b81146131a157600080fd5b50565b6000813590506131b38161318d565b92915050565b600080600080600060a086880312156131d5576131d4612c95565b5b60006131e388828901612ce8565b955050602086013567ffffffffffffffff81111561320457613203612c9a565b5b6132108882890161315f565b945050604086013567ffffffffffffffff81111561323157613230612c9a565b5b61323d8882890161315f565b935050606086013567ffffffffffffffff81111561325e5761325d612c9a565b5b61326a8882890161315f565b925050608061327b888289016131a4565b9150509295509295909350565b600060c08301600083015184820360008601526132a58282612d81565b91505060208301516132ba6020860182612dce565b50604083015184820360408601526132d28282612d81565b915050606083015184820360608601526132ec8282612d81565b91505060808301516133016080860182612ddd565b5060a083015184820360a08601526133198282612f05565b9150508091505092915050565b600060208201905081810360008301526133408184613288565b905092915050565b600080600080600060a0868803121561336457613363612c95565b5b600086013567ffffffffffffffff81111561338257613381612c9a565b5b61338e8882890161315f565b955050602086013567ffffffffffffffff8111156133af576133ae612c9a565b5b6133bb8882890161315f565b945050604086013567ffffffffffffffff8111156133dc576133db612c9a565b5b6133e88882890161315f565b935050606086013567ffffffffffffffff81111561340957613408612c9a565b5b6134158882890161315f565b9250506080613426888289016131a4565b9150509295509295909350565b61343c81612cbf565b82525050565b60006020820190506134576000830184613433565b92915050565b7f4e487b7100000000000000000000000000000000000000000000000000000000600052602260045260246000fd5b600060028204905060018216806134a457607f821691505b6020821081036134b7576134b661345d565b5b50919050565b600082825260208201905092915050565b7f4772616e7465642061636365737320746f20646f63746f720000000000000000600082015250565b60006135046018836134bd565b915061350f826134ce565b602082019050919050565b60008190508160005260206000209050919050565b6000815461353c8161348c565b61354681866134bd565b945060018216600081146135615760018114613577576135aa565b60ff1983168652811515602002860193506135aa565b6135808561351a565b60005b838110156135a257815481890152600182019150602081019050613583565b808801955050505b50505092915050565b60006080820190506135c86000830186613433565b81810360208301526135d9816134f7565b905081810360408301526135ed818561352f565b90506135fc6060830184613433565b949350505050565b7f4e487b7100000000000000000000000000000000000000000000000000000000600052603260045260246000fd5b7f4e487b7100000000000000000000000000000000000000000000000000000000600052601160045260246000fd5b600061ffff82169050919050565b600061367b82613662565b915061ffff820361368f5761368e613633565b5b600182019050919050565b60006136a582613662565b91506136b083613662565b9250828203905061ffff8111156136ca576136c9613633565b5b92915050565b60006136db82613662565b91506136e683613662565b9250828201905061ffff811115613700576136ff613633565b5b92915050565b7f4e487b7100000000000000000000000000000000000000000000000000000000600052603160045260246000fd5b7f5265766f6b656420616363657373206f6620646f63746f720000000000000000600082015250565b600061376b6018836134bd565b915061377682613735565b602082019050919050565b60006080820190506137966000830186613433565b81810360208301526137a78161375e565b905081810360408301526137bb818561352f565b90506137ca6060830184613433565b949350505050565b60006020601f8301049050919050565b600082821b905092915050565b60006008830261381f7fffffffffffffffffffffffffffffffffffffffffffffffffffffffffffffffff826137e2565b61382986836137e2565b95508019841693508086168417925050509392505050565b6000819050919050565b6000819050919050565b600061387061386b61386684613841565b61384b565b613841565b9050919050565b6000819050919050565b61388a83613855565b61389e61389682613877565b8484546137ef565b825550505050565b600090565b6138b36138a6565b6138be818484613881565b505050565b5b818110156138e2576138d76000826138ab565b6001810190506138c4565b5050565b601f821115613927576138f88161351a565b613901846137d2565b81016020851015613910578190505b61392461391c856137d2565b8301826138c3565b50505b505050565b600082821c905092915050565b600061394a6000198460080261392c565b1980831691505092915050565b60006139638383613939565b9150826002028217905092915050565b61397c82612d2a565b67ffffffffffffffff81111561399557613994613062565b5b61399f825461348c565b6139aa8282856138e6565b600060209050601f8311600181146139dd57600084156139cb578287015190505b6139d58582613957565b865550613a3d565b601f1984166139eb8661351a565b60005b82811015613a13578489015182556001820191506020850194506020810190506139ee565b86831015613a305784890151613a2c601f891682613939565b8355505b6001600288020188555050505b505050505050565b7f5265676973746572656420617320446f63746f72000000000000000000000000600082015250565b6000613a7b6014836134bd565b9150613a8682613a45565b602082019050919050565b6000604082019050613aa66000830184613433565b8181036020830152613ab781613a6e565b905092915050565b7f526567697374657265642061732050617469656e740000000000000000000000600082015250565b6000613af56015836134bd565b9150613b0082613abf565b602082019050919050565b6000604082019050613b206000830184613433565b8181036020830152613b3181613ae8565b90509291505056fea2646970667358221220260e065fb4c4f216400104f597e6e8bd61c53e1a4cde360827ede8cdf762958764736f6c63430008110033",
  "linkReferences": {},
  "deployedLinkReferences": {}
}